{
  "contractName": "TodosFactory",
  "abi": [
    {
      "inputs": [],
      "stateMutability": "nonpayable",
      "type": "constructor"
    },
    {
      "anonymous": false,
      "inputs": [
        {
          "indexed": false,
          "internalType": "address",
          "name": "todoOwner",
          "type": "address"
        },
        {
          "indexed": false,
          "internalType": "address",
          "name": "todo",
          "type": "address"
        }
      ],
      "name": "AddedTodo",
      "type": "event"
    },
    {
      "anonymous": false,
      "inputs": [
        {
          "indexed": false,
          "internalType": "address",
          "name": "todoOwner",
          "type": "address"
        },
        {
          "indexed": false,
          "internalType": "address",
          "name": "todo",
          "type": "address"
        }
      ],
      "name": "DeletedTodo",
      "type": "event"
    },
    {
      "inputs": [
        {
          "internalType": "address",
          "name": "",
          "type": "address"
        }
      ],
      "name": "todosFactory",
      "outputs": [
        {
          "internalType": "contract Todos",
          "name": "",
          "type": "address"
        }
      ],
      "stateMutability": "view",
      "type": "function"
    },
    {
      "inputs": [],
      "name": "createTodo",
      "outputs": [],
      "stateMutability": "nonpayable",
      "type": "function"
    },
    {
      "inputs": [
        {
          "internalType": "address",
          "name": "_todosAddress",
          "type": "address"
        }
      ],
      "name": "removeTodo",
      "outputs": [],
      "stateMutability": "nonpayable",
      "type": "function"
    },
    {
      "inputs": [],
      "name": "getTodosLength",
      "outputs": [
        {
          "internalType": "uint256",
          "name": "",
          "type": "uint256"
        }
      ],
      "stateMutability": "view",
      "type": "function"
    }
  ],
  "bytecode": "0x608060405234801561001057600080fd5b50600060018190555033600260006101000a81548173ffffffffffffffffffffffffffffffffffffffff021916908373ffffffffffffffffffffffffffffffffffffffff160217905550611c20806100696000396000f3fe608060405234801561001057600080fd5b506004361061004c5760003560e01c806375360c9614610051578063ec209aab1461005b578063f5e038ee14610079578063fb8a6613146100a9575b600080fd5b6100596100c5565b005b61006361029c565b60405161007091906104da565b60405180910390f35b610093600480360381019061008e9190610558565b6102a6565b6040516100a091906105e4565b60405180910390f35b6100c360048036038101906100be9190610558565b6102d9565b005b600073ffffffffffffffffffffffffffffffffffffffff166000803373ffffffffffffffffffffffffffffffffffffffff1673ffffffffffffffffffffffffffffffffffffffff16815260200190815260200160002060009054906101000a900473ffffffffffffffffffffffffffffffffffffffff1673ffffffffffffffffffffffffffffffffffffffff1614610192576040517f08c379a00000000000000000000000000000000000000000000000000000000081526004016101899061065c565b60405180910390fd5b6000336040516101a1906104b4565b6101ab919061068b565b604051809103906000f0801580156101c7573d6000803e3d6000fd5b509050806000803373ffffffffffffffffffffffffffffffffffffffff1673ffffffffffffffffffffffffffffffffffffffff16815260200190815260200160002060006101000a81548173ffffffffffffffffffffffffffffffffffffffff021916908373ffffffffffffffffffffffffffffffffffffffff160217905550600180600082825461025991906106d5565b925050819055507fa32384e836d02bf611be2827327fb80598a096d0ee24d510082122186b75150b338260405161029192919061072b565b60405180910390a150565b6000600154905090565b60006020528060005260406000206000915054906101000a900473ffffffffffffffffffffffffffffffffffffffff1681565b600260009054906101000a900473ffffffffffffffffffffffffffffffffffffffff1673ffffffffffffffffffffffffffffffffffffffff163373ffffffffffffffffffffffffffffffffffffffff1614610369576040517f08c379a0000000000000000000000000000000000000000000000000000000008152600401610360906107a0565b60405180910390fd5b600073ffffffffffffffffffffffffffffffffffffffff166000808373ffffffffffffffffffffffffffffffffffffffff1673ffffffffffffffffffffffffffffffffffffffff16815260200190815260200160002060009054906101000a900473ffffffffffffffffffffffffffffffffffffffff1673ffffffffffffffffffffffffffffffffffffffff161415610437576040517f08c379a000000000000000000000000000000000000000000000000000000000815260040161042e90610832565b60405180910390fd5b60018060008282546104499190610852565b925050819055506000808273ffffffffffffffffffffffffffffffffffffffff1673ffffffffffffffffffffffffffffffffffffffff16815260200190815260200160002060006101000a81549073ffffffffffffffffffffffffffffffffffffffff021916905550565b6113648061088783390190565b6000819050919050565b6104d4816104c1565b82525050565b60006020820190506104ef60008301846104cb565b92915050565b600080fd5b600073ffffffffffffffffffffffffffffffffffffffff82169050919050565b6000610525826104fa565b9050919050565b6105358161051a565b811461054057600080fd5b50565b6000813590506105528161052c565b92915050565b60006020828403121561056e5761056d6104f5565b5b600061057c84828501610543565b91505092915050565b6000819050919050565b60006105aa6105a56105a0846104fa565b610585565b6104fa565b9050919050565b60006105bc8261058f565b9050919050565b60006105ce826105b1565b9050919050565b6105de816105c3565b82525050565b60006020820190506105f960008301846105d5565b92915050565b600082825260208201905092915050565b7f596f7520616c7265616479206861766520746f646f20636f6e74726163742e00600082015250565b6000610646601f836105ff565b915061065182610610565b602082019050919050565b6000602082019050818103600083015261067581610639565b9050919050565b6106858161051a565b82525050565b60006020820190506106a0600083018461067c565b92915050565b7f4e487b7100000000000000000000000000000000000000000000000000000000600052601160045260246000fd5b60006106e0826104c1565b91506106eb836104c1565b9250827fffffffffffffffffffffffffffffffffffffffffffffffffffffffffffffffff038211156107205761071f6106a6565b5b828201905092915050565b6000604082019050610740600083018561067c565b61074d602083018461067c565b9392505050565b7f4e6f74204f776e6572204f6620436f6e74726163740000000000000000000000600082015250565b600061078a6015836105ff565b915061079582610754565b602082019050919050565b600060208201905081810360008301526107b98161077d565b9050919050565b7f54686572652069736e7420616e7920746f646f206f6e2074686973206164647260008201527f6573732e00000000000000000000000000000000000000000000000000000000602082015250565b600061081c6024836105ff565b9150610827826107c0565b604082019050919050565b6000602082019050818103600083015261084b8161080f565b9050919050565b600061085d826104c1565b9150610868836104c1565b92508282101561087b5761087a6106a6565b5b82820390509291505056fe60806040523480156200001157600080fd5b5060405162001364380380620013648339818101604052810190620000379190620000e9565b80600160006101000a81548173ffffffffffffffffffffffffffffffffffffffff021916908373ffffffffffffffffffffffffffffffffffffffff160217905550506200011b565b600080fd5b600073ffffffffffffffffffffffffffffffffffffffff82169050919050565b6000620000b18262000084565b9050919050565b620000c381620000a4565b8114620000cf57600080fd5b50565b600081519050620000e381620000b8565b92915050565b6000602082840312156200010257620001016200007f565b5b60006200011284828501620000d2565b91505092915050565b611239806200012b6000396000f3fe608060405234801561001057600080fd5b50600436106100625760003560e01c806369087bd8146100675780636e3c6738146100855780638da5cb5b146100a1578063bc8bc2b4146100bf578063dc00282c146100f0578063e34f12211461010c575b600080fd5b61006f61013c565b60405161007c9190610a16565b60405180910390f35b61009f600480360381019061009a9190610a71565b6101d9565b005b6100a96104be565b6040516100b69190610adf565b60405180910390f35b6100d960048036038101906100d49190610a71565b6104e4565b6040516100e7929190610bae565b60405180910390f35b61010a60048036038101906101059190610a71565b6105ad565b005b61012660048036038101906101219190610d13565b610712565b6040516101339190610df2565b60405180910390f35b6000600160009054906101000a900473ffffffffffffffffffffffffffffffffffffffff1673ffffffffffffffffffffffffffffffffffffffff163373ffffffffffffffffffffffffffffffffffffffff16146101ce576040517f08c379a00000000000000000000000000000000000000000000000000000000081526004016101c590610e60565b60405180910390fd5b600080549050905090565b600160009054906101000a900473ffffffffffffffffffffffffffffffffffffffff1673ffffffffffffffffffffffffffffffffffffffff163373ffffffffffffffffffffffffffffffffffffffff1614610269576040517f08c379a000000000000000000000000000000000000000000000000000000000815260040161026090610e60565b60405180910390fd5b60008054905081106102b0576040517f08c379a00000000000000000000000000000000000000000000000000000000081526004016102a790610ecc565b60405180910390fd5b60008082815481106102c5576102c4610eec565b5b906000526020600020906002020160000180546102e190610f4a565b80601f016020809104026020016040519081016040528092919081815260200182805461030d90610f4a565b801561035a5780601f1061032f5761010080835404028352916020019161035a565b820191906000526020600020905b81548152906001019060200180831161033d57829003601f168201915b5050505050905060008290505b60016000805490506103799190610fab565b81101561043357600060018261038f9190610fdf565b815481106103a05761039f610eec565b5b9060005260206000209060020201600082815481106103c2576103c1610eec565b5b906000526020600020906002020160008201816000019080546103e490610f4a565b6103ef929190610871565b506001820160009054906101000a900460ff168160010160006101000a81548160ff021916908315150217905550905050808061042b90611035565b915050610367565b5060008054806104465761044561107e565b5b60019003818190600052602060002090600202016000808201600061046b91906108fe565b6001820160006101000a81549060ff0219169055505090557f07d50b4304a53c8bca247cfb4bad87355559868908d83f8b2750f410ddcb8981816040516104b291906110ad565b60405180910390a15050565b600160009054906101000a900473ffffffffffffffffffffffffffffffffffffffff1681565b600081815481106104f457600080fd5b906000526020600020906002020160009150905080600001805461051790610f4a565b80601f016020809104026020016040519081016040528092919081815260200182805461054390610f4a565b80156105905780601f1061056557610100808354040283529160200191610590565b820191906000526020600020905b81548152906001019060200180831161057357829003601f168201915b5050505050908060010160009054906101000a900460ff16905082565b600160009054906101000a900473ffffffffffffffffffffffffffffffffffffffff1673ffffffffffffffffffffffffffffffffffffffff163373ffffffffffffffffffffffffffffffffffffffff161461063d576040517f08c379a000000000000000000000000000000000000000000000000000000000815260040161063490610e60565b60405180910390fd5b6000805490508110610684576040517f08c379a000000000000000000000000000000000000000000000000000000000815260040161067b90610ecc565b60405180910390fd5b600080828154811061069957610698610eec565b5b906000526020600020906002020190508060010160009054906101000a900460ff16158160010160006101000a81548160ff0219169083151502179055507f9a679adc5c5a31c5d51486ec98f8c08d322b6bf60f2549ac2acba6f3edf301a38160405161070691906111e1565b60405180910390a15050565b61071a61093e565b600160009054906101000a900473ffffffffffffffffffffffffffffffffffffffff1673ffffffffffffffffffffffffffffffffffffffff163373ffffffffffffffffffffffffffffffffffffffff16146107aa576040517f08c379a00000000000000000000000000000000000000000000000000000000081526004016107a190610e60565b60405180910390fd5b600060405180604001604052808481526020016000151581525090506000819080600181540180825580915050600190039060005260206000209060020201600090919091909150600082015181600001908051906020019061080e92919061095a565b5060208201518160010160006101000a81548160ff02191690831515021790555050507f2bd7c56b9c2adbb97ae40b2ce4845c7a8e3a96a719222e201f220885077f83f28360405161086091906110ad565b60405180910390a180915050919050565b82805461087d90610f4a565b90600052602060002090601f01602090048101928261089f57600085556108ed565b82601f106108b057805485556108ed565b828001600101855582156108ed57600052602060002091601f016020900482015b828111156108ec5782548255916001019190600101906108d1565b5b5090506108fa91906109e0565b5090565b50805461090a90610f4a565b6000825580601f1061091c575061093b565b601f01602090049060005260206000209081019061093a91906109e0565b5b50565b6040518060400160405280606081526020016000151581525090565b82805461096690610f4a565b90600052602060002090601f01602090048101928261098857600085556109cf565b82601f106109a157805160ff19168380011785556109cf565b828001600101855582156109cf579182015b828111156109ce5782518255916020019190600101906109b3565b5b5090506109dc91906109e0565b5090565b5b808211156109f95760008160009055506001016109e1565b5090565b6000819050919050565b610a10816109fd565b82525050565b6000602082019050610a2b6000830184610a07565b92915050565b6000604051905090565b600080fd5b600080fd5b610a4e816109fd565b8114610a5957600080fd5b50565b600081359050610a6b81610a45565b92915050565b600060208284031215610a8757610a86610a3b565b5b6000610a9584828501610a5c565b91505092915050565b600073ffffffffffffffffffffffffffffffffffffffff82169050919050565b6000610ac982610a9e565b9050919050565b610ad981610abe565b82525050565b6000602082019050610af46000830184610ad0565b92915050565b600081519050919050565b600082825260208201905092915050565b60005b83811015610b34578082015181840152602081019050610b19565b83811115610b43576000848401525b50505050565b6000601f19601f8301169050919050565b6000610b6582610afa565b610b6f8185610b05565b9350610b7f818560208601610b16565b610b8881610b49565b840191505092915050565b60008115159050919050565b610ba881610b93565b82525050565b60006040820190508181036000830152610bc88185610b5a565b9050610bd76020830184610b9f565b9392505050565b600080fd5b600080fd5b7f4e487b7100000000000000000000000000000000000000000000000000000000600052604160045260246000fd5b610c2082610b49565b810181811067ffffffffffffffff82111715610c3f57610c3e610be8565b5b80604052505050565b6000610c52610a31565b9050610c5e8282610c17565b919050565b600067ffffffffffffffff821115610c7e57610c7d610be8565b5b610c8782610b49565b9050602081019050919050565b82818337600083830152505050565b6000610cb6610cb184610c63565b610c48565b905082815260208101848484011115610cd257610cd1610be3565b5b610cdd848285610c94565b509392505050565b600082601f830112610cfa57610cf9610bde565b5b8135610d0a848260208601610ca3565b91505092915050565b600060208284031215610d2957610d28610a3b565b5b600082013567ffffffffffffffff811115610d4757610d46610a40565b5b610d5384828501610ce5565b91505092915050565b600082825260208201905092915050565b6000610d7882610afa565b610d828185610d5c565b9350610d92818560208601610b16565b610d9b81610b49565b840191505092915050565b610daf81610b93565b82525050565b60006040830160008301518482036000860152610dd28282610d6d565b9150506020830151610de76020860182610da6565b508091505092915050565b60006020820190508181036000830152610e0c8184610db5565b905092915050565b7f4e6f74204f776e6572204f6620436f6e74726163740000000000000000000000600082015250565b6000610e4a601583610b05565b9150610e5582610e14565b602082019050919050565b60006020820190508181036000830152610e7981610e3d565b9050919050565b7f696e646578206f7574206f6620626f756e640000000000000000000000000000600082015250565b6000610eb6601283610b05565b9150610ec182610e80565b602082019050919050565b60006020820190508181036000830152610ee581610ea9565b9050919050565b7f4e487b7100000000000000000000000000000000000000000000000000000000600052603260045260246000fd5b7f4e487b7100000000000000000000000000000000000000000000000000000000600052602260045260246000fd5b60006002820490506001821680610f6257607f821691505b60208210811415610f7657610f75610f1b565b5b50919050565b7f4e487b7100000000000000000000000000000000000000000000000000000000600052601160045260246000fd5b6000610fb6826109fd565b9150610fc1836109fd565b925082821015610fd457610fd3610f7c565b5b828203905092915050565b6000610fea826109fd565b9150610ff5836109fd565b9250827fffffffffffffffffffffffffffffffffffffffffffffffffffffffffffffffff0382111561102a57611029610f7c565b5b828201905092915050565b6000611040826109fd565b91507fffffffffffffffffffffffffffffffffffffffffffffffffffffffffffffffff82141561107357611072610f7c565b5b600182019050919050565b7f4e487b7100000000000000000000000000000000000000000000000000000000600052603160045260246000fd5b600060208201905081810360008301526110c78184610b5a565b905092915050565b60008190508160005260206000209050919050565b600081546110f181610f4a565b6110fb8186610d5c565b9450600182166000811461111657600181146111285761115b565b60ff198316865260208601935061115b565b611131856110cf565b60005b8381101561115357815481890152600182019150602081019050611134565b808801955050505b50505092915050565b60008160001c9050919050565b600060ff82169050919050565b600061119161118c83611164565b611171565b9050919050565b600060408301600080840185830360008701526111b583826110e4565b925050600184015490506111c88161117e565b6111d56020870182610da6565b50819250505092915050565b600060208201905081810360008301526111fb8184611198565b90509291505056fea26469706673582212204ec03475ad57c7188146fe4d4428b22591ddceb964ab221a1656cb529086f43964736f6c634300080b0033a2646970667358221220281b75c8785ecd7a59ca4dc7e7ab3e0f0e1f5a435f34f594f054bac185697ad764736f6c634300080b0033",
  "immutableReferences": {},
  "source": "// SPDX-License-Identifier: MIT\npragma solidity ^0.8.2;\n\nimport \"./Todos.sol\";\n\ncontract TodosFactory {\n    mapping(address => Todos) public todosFactory;\n    uint addressLength;\n\n    address owner;\n\n    event AddedTodo(address todoOwner,address todo);\n    event DeletedTodo(address todoOwner,address todo);\n\n    constructor(){\n        addressLength = 0;\n        owner = msg.sender;\n    }\n\n    modifier onlyOwner(){\n        require(msg.sender == owner,\"Not Owner Of Contract\");\n        _;\n    }\n\n    function createTodo() public {\n        require(address(todosFactory[msg.sender]) == address(0),\"You already have todo contract.\");\n\n        Todos _todo = new Todos(msg.sender);\n\n        todosFactory[msg.sender] = _todo;\n\n        addressLength += 1;\n\n        emit AddedTodo(msg.sender,address(_todo));\n    }\n\n    function removeTodo(address _todosAddress) public onlyOwner {\n        require(address(todosFactory[_todosAddress]) != address(0),\"There isnt any todo on this address.\");\n\n        addressLength -= 1;\n\n        delete todosFactory[_todosAddress];\n    }\n\n\n    function getTodosLength() public view returns ( uint ) {\n        return addressLength;\n    }\n\n}",
  "sourcePath": "/Users/mnkhod/Projects/Diverse-SmartContract-Examples/diverse-todo-factory/contracts/TodosFactory.sol",
  "compiler": {
    "name": "solc",
    "version": "0.8.11+commit.d7f03943.Emscripten.clang"
  },
  "schemaVersion": "3.4.3",
  "updatedAt": "2022-01-16T17:21:05.389Z",
  "devdoc": {
    "kind": "dev",
    "methods": {},
    "version": 1
  },
  "userdoc": {
    "kind": "user",
    "methods": {},
    "version": 1
  }
}